{
  "contractName": "SharedWallet",
  "abi": [
    {
      "anonymous": false,
      "inputs": [
        {
          "indexed": true,
          "internalType": "address",
          "name": "_foWho",
          "type": "address"
        },
        {
          "indexed": true,
          "internalType": "address",
          "name": "_byWhom",
          "type": "address"
        },
        {
          "indexed": false,
          "internalType": "uint256",
          "name": "_oldAmount",
          "type": "uint256"
        },
        {
          "indexed": false,
          "internalType": "uint256",
          "name": "_newAmount",
          "type": "uint256"
        }
      ],
      "name": "AllowanceChanged",
      "type": "event"
    },
    {
      "anonymous": false,
      "inputs": [
        {
          "indexed": true,
          "internalType": "address",
          "name": "_from",
          "type": "address"
        },
        {
          "indexed": false,
          "internalType": "uint256",
          "name": "_amount",
          "type": "uint256"
        }
      ],
      "name": "MoneyReceived",
      "type": "event"
    },
    {
      "anonymous": false,
      "inputs": [
        {
          "indexed": true,
          "internalType": "address",
          "name": "_beneficiary",
          "type": "address"
        },
        {
          "indexed": false,
          "internalType": "uint256",
          "name": "_amount",
          "type": "uint256"
        }
      ],
      "name": "MoneySent",
      "type": "event"
    },
    {
      "anonymous": false,
      "inputs": [
        {
          "indexed": true,
          "internalType": "address",
          "name": "previousOwner",
          "type": "address"
        },
        {
          "indexed": true,
          "internalType": "address",
          "name": "newOwner",
          "type": "address"
        }
      ],
      "name": "OwnershipTransferred",
      "type": "event"
    },
    {
      "inputs": [
        {
          "internalType": "address",
          "name": "",
          "type": "address"
        }
      ],
      "name": "allowance",
      "outputs": [
        {
          "internalType": "uint256",
          "name": "",
          "type": "uint256"
        }
      ],
      "stateMutability": "view",
      "type": "function",
      "constant": true
    },
    {
      "inputs": [],
      "name": "owner",
      "outputs": [
        {
          "internalType": "address",
          "name": "",
          "type": "address"
        }
      ],
      "stateMutability": "view",
      "type": "function",
      "constant": true
    },
    {
      "inputs": [
        {
          "internalType": "address",
          "name": "_who",
          "type": "address"
        },
        {
          "internalType": "uint256",
          "name": "_amount",
          "type": "uint256"
        }
      ],
      "name": "setAllowance",
      "outputs": [],
      "stateMutability": "nonpayable",
      "type": "function"
    },
    {
      "inputs": [
        {
          "internalType": "address",
          "name": "newOwner",
          "type": "address"
        }
      ],
      "name": "transferOwnership",
      "outputs": [],
      "stateMutability": "nonpayable",
      "type": "function"
    },
    {
      "stateMutability": "payable",
      "type": "receive",
      "payable": true
    },
    {
      "inputs": [
        {
          "internalType": "address payable",
          "name": "_to",
          "type": "address"
        },
        {
          "internalType": "uint256",
          "name": "_amount",
          "type": "uint256"
        }
      ],
      "name": "withdrawMoney",
      "outputs": [],
      "stateMutability": "nonpayable",
      "type": "function"
    },
    {
      "inputs": [],
      "name": "renounceOwnership",
      "outputs": [],
      "stateMutability": "view",
      "type": "function",
      "constant": true
    }
  ],
  "bytecode": "0x608060405234801561001057600080fd5b5061002d61002261003260201b60201c565b61003a60201b60201c565b6100fe565b600033905090565b60008060009054906101000a900473ffffffffffffffffffffffffffffffffffffffff169050816000806101000a81548173ffffffffffffffffffffffffffffffffffffffff021916908373ffffffffffffffffffffffffffffffffffffffff1602179055508173ffffffffffffffffffffffffffffffffffffffff168173ffffffffffffffffffffffffffffffffffffffff167f8be0079c531659141344cd1fd0a4f28419497f9722a3daafe3b4186f6b6457e060405160405180910390a35050565b610ed18061010d6000396000f3fe6080604052600436106100595760003560e01c8063310ec4a7146100b35780633e5beab9146100dc578063715018a6146101195780638da5cb5b14610130578063f274c8971461015b578063f2fde38b14610184576100ae565b366100ae573373ffffffffffffffffffffffffffffffffffffffff167f27b15ed4cf832749ed39f33a64e4707ed60a761485e41ffec7343ecaddc0c02a346040516100a49190610c37565b60405180910390a2005b600080fd5b3480156100bf57600080fd5b506100da60048036038101906100d59190610a73565b6101ad565b005b3480156100e857600080fd5b5061010360048036038101906100fe9190610a0e565b610317565b6040516101109190610c37565b60405180910390f35b34801561012557600080fd5b5061012e61032f565b005b34801561013c57600080fd5b506101456103e6565b6040516101529190610b7c565b60405180910390f35b34801561016757600080fd5b50610182600480360381019061017d9190610a37565b61040f565b005b34801561019057600080fd5b506101ab60048036038101906101a69190610a0e565b610595565b005b6101b561068d565b73ffffffffffffffffffffffffffffffffffffffff166101d36103e6565b73ffffffffffffffffffffffffffffffffffffffff1614610229576040517f08c379a000000000000000000000000000000000000000000000000000000000815260040161022090610c17565b60405180910390fd5b3373ffffffffffffffffffffffffffffffffffffffff168273ffffffffffffffffffffffffffffffffffffffff167f3691d1a86d99355e52b689ca70a7bdf6d80763237a6aa06e5fa43964eac7244b600160008673ffffffffffffffffffffffffffffffffffffffff1673ffffffffffffffffffffffffffffffffffffffff16815260200190815260200160002054846040516102c7929190610c52565b60405180910390a380600160008473ffffffffffffffffffffffffffffffffffffffff1673ffffffffffffffffffffffffffffffffffffffff168152602001908152602001600020819055505050565b60016020528060005260406000206000915090505481565b61033761068d565b73ffffffffffffffffffffffffffffffffffffffff166103556103e6565b73ffffffffffffffffffffffffffffffffffffffff16146103ab576040517f08c379a00000000000000000000000000000000000000000000000000000000081526004016103a290610c17565b60405180910390fd5b6040517f08c379a00000000000000000000000000000000000000000000000000000000081526004016103dd90610bd7565b60405180910390fd5b60008060009054906101000a900473ffffffffffffffffffffffffffffffffffffffff16905090565b80610418610695565b80610462575080600160003373ffffffffffffffffffffffffffffffffffffffff1673ffffffffffffffffffffffffffffffffffffffff1681526020019081526020016000205410155b6104a1576040517f08c379a000000000000000000000000000000000000000000000000000000000815260040161049890610bb7565b60405180910390fd5b478211156104e4576040517f08c379a00000000000000000000000000000000000000000000000000000000081526004016104db90610bf7565b60405180910390fd5b6104ec610695565b6104fb576104fa33836106d2565b5b8273ffffffffffffffffffffffffffffffffffffffff167f7f51d406915971d4ac1c91af96be5187ea6ab64753785aad519a533def80a41e836040516105419190610c37565b60405180910390a28273ffffffffffffffffffffffffffffffffffffffff166108fc839081150290604051600060405180830381858888f1935050505015801561058f573d6000803e3d6000fd5b50505050565b61059d61068d565b73ffffffffffffffffffffffffffffffffffffffff166105bb6103e6565b73ffffffffffffffffffffffffffffffffffffffff1614610611576040517f08c379a000000000000000000000000000000000000000000000000000000000815260040161060890610c17565b60405180910390fd5b600073ffffffffffffffffffffffffffffffffffffffff168173ffffffffffffffffffffffffffffffffffffffff161415610681576040517f08c379a000000000000000000000000000000000000000000000000000000000815260040161067890610b97565b60405180910390fd5b61068a816108f5565b50565b600033905090565b60003373ffffffffffffffffffffffffffffffffffffffff166106b66103e6565b73ffffffffffffffffffffffffffffffffffffffff1614905090565b806106db610695565b80610725575080600160003373ffffffffffffffffffffffffffffffffffffffff1673ffffffffffffffffffffffffffffffffffffffff1681526020019081526020016000205410155b610764576040517f08c379a000000000000000000000000000000000000000000000000000000000815260040161075b90610bb7565b60405180910390fd5b3373ffffffffffffffffffffffffffffffffffffffff168373ffffffffffffffffffffffffffffffffffffffff167f3691d1a86d99355e52b689ca70a7bdf6d80763237a6aa06e5fa43964eac7244b600160008773ffffffffffffffffffffffffffffffffffffffff1673ffffffffffffffffffffffffffffffffffffffff1681526020019081526020016000205461084586600160008a73ffffffffffffffffffffffffffffffffffffffff1673ffffffffffffffffffffffffffffffffffffffff168152602001908152602001600020546109b990919063ffffffff16565b604051610853929190610c52565b60405180910390a36108ad82600160008673ffffffffffffffffffffffffffffffffffffffff1673ffffffffffffffffffffffffffffffffffffffff168152602001908152602001600020546109b990919063ffffffff16565b600160008573ffffffffffffffffffffffffffffffffffffffff1673ffffffffffffffffffffffffffffffffffffffff16815260200190815260200160002081905550505050565b60008060009054906101000a900473ffffffffffffffffffffffffffffffffffffffff169050816000806101000a81548173ffffffffffffffffffffffffffffffffffffffff021916908373ffffffffffffffffffffffffffffffffffffffff1602179055508173ffffffffffffffffffffffffffffffffffffffff168173ffffffffffffffffffffffffffffffffffffffff167f8be0079c531659141344cd1fd0a4f28419497f9722a3daafe3b4186f6b6457e060405160405180910390a35050565b600081836109c79190610c8c565b905092915050565b6000813590506109de81610e56565b92915050565b6000813590506109f381610e6d565b92915050565b600081359050610a0881610e84565b92915050565b600060208284031215610a2057600080fd5b6000610a2e848285016109cf565b91505092915050565b60008060408385031215610a4a57600080fd5b6000610a58858286016109e4565b9250506020610a69858286016109f9565b9150509250929050565b60008060408385031215610a8657600080fd5b6000610a94858286016109cf565b9250506020610aa5858286016109f9565b9150509250929050565b610ab881610cc0565b82525050565b6000610acb602683610c7b565b9150610ad682610d3d565b604082019050919050565b6000610aee601383610c7b565b9150610af982610d8c565b602082019050919050565b6000610b11601c83610c7b565b9150610b1c82610db5565b602082019050919050565b6000610b34602183610c7b565b9150610b3f82610dde565b604082019050919050565b6000610b57602083610c7b565b9150610b6282610e2d565b602082019050919050565b610b7681610d04565b82525050565b6000602082019050610b916000830184610aaf565b92915050565b60006020820190508181036000830152610bb081610abe565b9050919050565b60006020820190508181036000830152610bd081610ae1565b9050919050565b60006020820190508181036000830152610bf081610b04565b9050919050565b60006020820190508181036000830152610c1081610b27565b9050919050565b60006020820190508181036000830152610c3081610b4a565b9050919050565b6000602082019050610c4c6000830184610b6d565b92915050565b6000604082019050610c676000830185610b6d565b610c746020830184610b6d565b9392505050565b600082825260208201905092915050565b6000610c9782610d04565b9150610ca283610d04565b925082821015610cb557610cb4610d0e565b5b828203905092915050565b6000610ccb82610ce4565b9050919050565b6000610cdd82610ce4565b9050919050565b600073ffffffffffffffffffffffffffffffffffffffff82169050919050565b6000819050919050565b7f4e487b7100000000000000000000000000000000000000000000000000000000600052601160045260246000fd5b7f4f776e61626c653a206e6577206f776e657220697320746865207a65726f206160008201527f6464726573730000000000000000000000000000000000000000000000000000602082015250565b7f596f7520617265206e6f7420616c6c6f77656400000000000000000000000000600082015250565b7f63616e27742072656e6f756e63654f776e657273686970206865726500000000600082015250565b7f436f6e747261637420646f65736e2774206f776e20656e6f756768206d6f6e6560008201527f7900000000000000000000000000000000000000000000000000000000000000602082015250565b7f4f776e61626c653a2063616c6c6572206973206e6f7420746865206f776e6572600082015250565b610e5f81610cc0565b8114610e6a57600080fd5b50565b610e7681610cd2565b8114610e8157600080fd5b50565b610e8d81610d04565b8114610e9857600080fd5b5056fea26469706673582212206627067a7549b39d006321ae7fa93d6a3fe21fa96c4aecbc70f106446265514a64736f6c63430008010033",
  "immutableReferences": {},
  "source": "//SPDX-License-Identifier: MIT\r\npragma solidity >=0.8.0 <0.9.0;\r\n\r\nimport \"../node_modules/@openzeppelin/contracts/access/Ownable.sol\";\r\nimport \"./Allowance.sol\";\r\n\r\ncontract SharedWallet is Allowance {\r\n\r\n    event MoneySent(address indexed _beneficiary, uint _amount);\r\n    event MoneyReceived(address indexed _from, uint _amount);\r\n\r\n    function withdrawMoney(address payable _to, uint _amount) public ownerOrAllowed(_amount) {\r\n        require(_amount <= address(this).balance, \"Contract doesn't own enough money\");\r\n        if(!isOwner()) {\r\n            reduceAllowance(msg.sender, _amount);\r\n        }\r\n        emit MoneySent(_to, _amount);\r\n        _to.transfer(_amount);\r\n    }\r\n\r\n    function renounceOwnership() public view override onlyOwner {\r\n        revert(\"can't renounceOwnership here\"); //not possible with this smart contract\r\n    }\r\n\r\n    receive() external payable {\r\n        emit MoneyReceived(msg.sender, msg.value);\r\n    }\r\n\r\n}\r\n",
  "sourcePath": "/mnt/c/users/beniamin/source/repos/ethereum developer bootcamp/project-sharedwallet/contracts/SharedWallet.sol",
  "compiler": {
    "name": "solc",
    "version": "0.8.1+commit.df193b15.Emscripten.clang"
  },
  "schemaVersion": "3.3.4",
  "updatedAt": "2021-10-15T15:03:26.286Z",
  "networkType": "ethereum",
  "devdoc": {
    "kind": "dev",
    "methods": {
      "owner()": {
        "details": "Returns the address of the current owner."
      },
      "renounceOwnership()": {
        "details": "Leaves the contract without owner. It will not be possible to call `onlyOwner` functions anymore. Can only be called by the current owner. NOTE: Renouncing ownership will leave the contract without an owner, thereby removing any functionality that is only available to the owner."
      },
      "transferOwnership(address)": {
        "details": "Transfers ownership of the contract to a new account (`newOwner`). Can only be called by the current owner."
      }
    },
    "version": 1
  },
  "userdoc": {
    "kind": "user",
    "methods": {},
    "version": 1
  }
}